:020000040000FA
:1000000084288207233423342234223422342234B5
:100010002234223422342134213421342134213435
:10002000213421342134213421342034203420342B
:100030002034203420342034203420341F341F3422
:100040001F341F341F341F341F341F341F341F3418
:100050001E341E341E341E341E341E341E341E3410
:100060001E341D341D341D341D341D341D341D3407
:100070001D341D341C341C341C341C341C341C34FE
:100080001C341C341C341C341C341C341C341B34F1
:100090001B341B341B341B341B341B341B341B34E8
:1000A0001B341B341A341A341A341A341A341A34DE
:1000B0001A341A341A341A341A341A3419341934D2
:1000C00019341934193419341934193419341934C8
:1000D00019341934193419341834183418341834BC
:1000E00018341834183418341834183418341734B1
:1000F00017341734173417341734173417341734A8
:100100001734173417341734831285018601831688
:10011000FF3081008312860183166A308F008601CA
:10012000FF30850007309C001D309B0030309F0061
:10013000831261309F0083160130990020309800AF
:1001400083129030980011309000AD012D14861468
:1001500086151930A200F220A20BAB28861086115A
:10016000592990309900CE2026089900CE202A08DF
:100170009900CE20080080309900CE2026089900F2
:10018000CE2000309900CE20B0309900CE207B30B8
:100190009900CE2000309900CE20080086158316E5
:1001A000981CD028831208001F151F19D528080095
:1001B000F22031082F02A500AA000310250C3107F8
:1001C000A5002508B000B2003108B0020310300CC1
:1001D0003202B00025082F02AE0003102E0C2507B6
:1001E000AE000800AF01FF30B1000430A300C830FA
:1001F000A400D4201E082F02031C072131081E0270
:10020000031C0A21A40BF928A30BF72808001E08D9
:10021000AF0008001E08B1000800AD103C30A70078
:100220000310A80C0310A90C0318A817A908031998
:100230001F290C30A70203181029AD1408002D1136
:100240008030A802031C2C298230280203182C2994
:1002500028080120270708002D1508008E018F01AE
:100260000F1B5729AD11D42030081E020318302966
:100270000F1B5729D4201E082E02031838298E017F
:100280008F0100000F1B5729D42030081E020318CD
:1002900042290F1B5729D4201E082E020318492972
:1002A00010100E08A8000F08A90010140800AD15C2
:1002B0000800D8202A08AC002D1C632986110A30BA
:1002C0002A02031C5929861086112E21AD1959299D
:1002D0000D212D196529A600C230B2002A0832026C
:1002E000031C7A292A083C3EAA007E30B2002A0864
:1002F0003202031C9E21B120D8202A08B200AB0094
:10030000861186102D1403302B02031C98292D1002
:100310000A302C070318FF302B0203189A292B08E8
:10032000AC00851C7C29A221B200321C7C299A29B0
:10033000BB205929BB202B08AC00632986147F30D1
:10034000AA0008000230B3002E21AD1900340D219F
:10035000B4002D1900342602031900340318B429FF
:10036000B200B209B20A3208053C031C0034B30BD8
:04037000A429013487
:02400E00102F71
:00000001FF
